:030000000226884D
:0C268800787FE4F6D8FD7581070226CFAC
:101EA5006100000000FFFFFFFFFFFF004348010046
:101EB500571F0000291E01038000000008000000D4
:101EC5000000000000000000000001010101010107
:101ED50001010101010101010101BC34380F4080FC
:101EE50014700F0F480600000000001E00000000DF
:101EF50000000000000000000000000000000000DD
:101F050000000000000000000000000000000000CC
:101F150000000000000000000000000000000000BC
:101F25000000001C00000000000000000000000090
:101F3500000000000000000000000000000000009C
:101F4500000000000000000000000000000000008C
:101F5500000000000000000000000000000000007C
:101F6500000000000000000000000000000000006C
:101F7500000000000000000000000000000000005C
:101F8500000000000000000000000000000000004C
:101F9500000000000000000000000000000000003C
:041FA5000000000038
:0B1D1000900100EBF0A3EAF0A3E9F063
:101D1B00900176E0FEA3E0FF900175E02FFF9001AC
:101D2B0074E03EFE900179E02FFF900178E03E9049
:101D3B000103F0A3EFF090017FE0FF90017EE02F15
:101D4B00FFE433FE900180E07C002FFFEC3E90011E
:101D5B0005F0A3EFF0E47B0AFAF9F890016CE0FCD4
:101D6B00A3E0FDA3E0FEA3E0FF120929900100E030
:101D7B00FBA3E0FAA3E0F9EF1207EDE47B0AFAF913
:101D8B00F890016CE0FCA3E0FDA3E0FEA3E0FF12E2
:101D9B000929E4FB7A01F9F8120929900100E0FB0B
:101DAB00A3E0FAA3E0F9900001EF1207FF90017294
:101DBB00E0FEA3E09000021207FF900104E0900008
:101DCB00031207FFEEC4F8540FC868FFAD0790016C
:101DDB0003E02D9000041207FF90017DE0900005B9
:101DEB001207FF900106E09000061207FF90017C9E
:101DFB00E0C4F8540FC868FFAC07900105E02C90C5
:101E0B0000071207FF900175E09000081207FF9082
:101E1B000177E09000091207FF90017EE0540FC498
:101E2B0054F0FFA3E0540F2F90000A1207FF90010C
:101E3B0076E0C4F8540FC868FFAC07900174E07EDD
:101E4B00007806C333CE33CED8F92CFF90017EE059
:101E5B00C4540F25E025E02FFFA3E0C4540F2F90AF
:101E6B00000B1207FF900173E090000C1207FF901C
:101E7B00017DE090000D1207FF90017CE02D90009A
:101E8B000E1207FF900181E025E04418FFA3E02527
:0A1E9B00E025E04F9000110207FF60
:0B281800900100EBF0A3EAF0A3E9F050
:10282300E4FFFE900100E0FBA3E0FAA3E0F98E824F
:102833007583001207C02FFF0EEEB47FE6C3E49F3B
:10284300FF900100E0FBA3E0FAA3E0F990007FEF23
:102853001207FFE4FFFEEE2480FDE433FC90010049
:10286300E0FBA3E0FAA3E0F98D828C831207C02F6B
:10287300FF0EEEB47FE0C3E49FFF900100E0FBA3F3
:0C288300E0FAA3E0F99000FFEF0207FF6D
:102B8A000001000000000000000100010000000137
:102B9A00000100020000000200010003000000031F
:102BAA0000020007000000070002000B0000000BF3
:102BBA000002000F0000000F0004001F0000001FA9
:101FA90044018C0000000044018600000000440147
:051FB900900000000093
:10000300050100051100051000052900052800154C
:10001300FF0115FB0115FF0215FB0115FF0315FB7E
:100023000115FF0415FB0115FF0515FB0115D7315C
:1000330015D87E15FF0015FB0115BA0315360015FB
:10004300B00015D30815D40E15D50F15D64815D7FE
:100053000015D90015FB0115FFEE154000154100F1
:1000630015420015FB0115FF0115FB01150155157F
:10007300040C15053A1506501507D0150A0F150C73
:1000830006150D7F150E7F150F7015106315113CA6
:1000930015125C15135A15145A15156015161515F6
:1000A30017151523001524001525001526001527FF
:1000B30000152800154400154500154600155BCAB8
:1000C300155C00155D00155E2D155F1B1560D515BC
:1000D30061F7156CAB156D4415FF0515FB01150094
:1000E3003F15013F15023F15033F15043815053F22
:1000F30015063F15071915081D15093F150A3F1564
:100103000B1B150C17150D3F150E3F150F0815107A
:100113003F15111015123F15133F15143F15153FC9
:1001230015163F15173F151838151918151A1C15EC
:100133001B3F151C3F151D1A151E16151F3F1520B5
:100143003F15213F15223F15230615243F15250E84
:1001530015263F15273F1554061555051556041545
:10016300580315591B155A1B155B01155C32155E97
:1001730018155F2015602B15612C15621815630186
:100183001564321565001566441567111568011568
:100193006901156A04156B2C156C08156D08157823
:1001A30000157900157E00157F001580001581006C
:1001B300158D00158E00158FC015907315911015B0
:1001C3009207159611159714159800159900159A0D
:1001D30000159B61159C15159D30159F0F15A2B039
:1001E30015A70A15A90015AA7015ABDA15ACFF15EA
:1001F300AEF415AF4015B07F15B11615B25315B354
:100203000015B42A15B53A15B6F015BC8515BDF41D
:1002130015BE3315BF1315C07715C17715C27715F2
:10022300C37715C47715C57715C67715C77715C86E
:10023300AA15C92A15CA0015CBAA15CC9215CD004B
:1002430015CE1815CF8815D0AA15D10015D20015D3
:10025300D30015D60215ED0015EE0015EF7015FA53
:100263000315FF0015FF0115FB0115750015760039
:1002730015770015782C157900157A4F157B001525
:100283007C69157D00157E7F157F00158092158191
:10029300001582A31583001584B31585001586C147
:1002A3001587001588F3158901158A1B158B011510
:1002B3008C5A158D01158E8B158F011590D91591BB
:1002C3000215921615930215941815950215964E5C
:1002D300159702159888159902159AAC159B021566
:1002E3009CDD159D03159E01159F0315A02E15A2D8
:1002F3000315A33C15A40315A54C15A60315A75D6B
:1003030015A90315AA7015AB0315AC8815AD031514
:10031300AEA815AF0315B0C815B10315B2FF15B3D9
:100323000015B40015B50015B62C15B70015B84F58
:1003330015B90015BA6915BB0015BC7F15BD0015AD
:10034300BE9215BF0015C0A315C10015C2B315C3D6
:100353000015C4C115C50015C6F315C70115C81B83
:1003630015C90115CA5A15CB0115CC8B15CD01152D
:10037300CED915CF0215D01615D10215D21815D323
:100383000215D44E15D50215D68815D70215D8AC4B
:1003930015D90215DADD15DB0315DC0115DD0315AF
:1003A300DE2E15DF0315E03C15E10315E24C15E3E2
:1003B3000315E45D15E50315E67015E70315E888F5
:1003C30015E90315EAA815EB0315ECC815ED03159C
:1003D300EEFF15EF0015F00015F10015F22C15F3E3
:1003E3000015F44F15F50015F66915F70015F87F9C
:1003F30015F90015FA9215FF0215FB0115000015FA
:1004030001A31502001503B31504001505C1150654
:10041300001507F315080115091B150A01150B5AD9
:10042300150C01150D8B150E01150FD9151002159D
:10043300111615120215131815140215154E15165B
:10044300021517881518021519AC151A02151BDDAC
:10045300151C03151D01151E03151F2E152003154D
:10046300213C15220315234C15240315255D152660
:1004730003152770152803152988152A03152BA89A
:10048300152D03152FC81530031531FF153200152F
:10049300330015340015352C15360015374F153834
:1004A30000153969153A00153B7F153D00153F923C
:1004B3001540001541A31542001543B3154400151B
:1004C30045C11546001547F315480115491B154A43
:1004D30001154B5A154C01154D8B154E01154FD96E
:1004E30015500215511615520215531815540215BD
:1004F300554E155602155888155902155AAC155BF9
:1005030002155CDD155D03155E01155F0315602E95
:1005130015610315623C15630315644C15650315DA
:10052300665D156703156870156903156A88156B91
:1005330003156CA8156D03156EC8156F031570FFB1
:1005430015710015720015730015742C15750015BF
:10055300764F157700157869157900157A7F157B25
:1005630000157C92157D00157EA3157F001580B3C1
:100573001581001582C11583001584F315850115B6
:10058300861B15870115885A158901158A8B158BCA
:1005930001158CD9158D02158E16158F021590181D
:1005A30015910215924E159302159488159502150F
:1005B30096AC1597021598DD159903159A01159BAD
:1005C30003159C2E159D03159E3C159F0315A04CEA
:1005D30015A20315A35D15A40315A57015A6031590
:1005E300A78815A90315AAA815AB0315ACC815ADA3
:1005F3000315AEFF15AF0015B00015B10015B22CF1
:1006030015B30015B44F15B50015B66915B7001528
:10061300B87F15B90015BA9215BB0015BCA315BD5B
:100623000015BEB315BF0015C0C115C10015C2F337
:1006330015C30115C41B15C50115C65A15C70115E8
:10064300C88B15C90115CAD915CB0215CC1615CD02
:100653000215CE1815CF0215D04E15D10215D2882A
:1006630015D30215D4AC15D50215D6DD15D7031550
:10067300D80115D90315DA2E15DB0315DC3C15DD7E
:100683000315DE4C15DF0315E05D15E10315E2707C
:1006930015E30315E48815E50315E6A815E7031527
:0E06A300E8C815E90315EAFF15FF0015FB0175
:07223E00E493FF7BFF7D022A
:10224500900102EFF0A3EDF0A3EBF0A3EAF0A3E910
:01225500F098
:10225600E4A3F07D407F1C7EC2122D53900103E063
:102266006402704F7D0C7F187EC2122D537D047F51
:10227600197EC2122D53900102E0FD7F347EC212F8
:102286002D53900104E0FBA3E0FAA3E0F91207A79F
:10229600FD7F347EC2122D53900104E0FBA3E0FAC9
:1022A600A3E0F99000011207C0FD7F347EC2122D13
:1022B6005380727D0E7F187EC2122D53900103E06B
:1022C6002406FD7F197EC2122D53900102E0FD7F88
:1022D600347EC2122D53900103E0FD7F347EC2127C
:1022E6002D53E4FD7F347EC2122D53E4900107F096
:1022F600900103E0FF900107E0C39F50289001047E
:10230600E0FBA3E0FAA3E0F91207A7FD7F347EC243
:10231600122D53900105E475F0011208889001070B
:10232600E004F080CB7F017E00122D8AE4FD7F1849
:052336007EC2022D53E0
:012E5500225A
:10279800E4900100F0A3F0900100E0FAA3E0FB90C0
:1027A800001275F003120A1CEA75F003A42583F5DC
:1027B80083E493FFC0077C007D03AF03AE021208D9
:1027C8002174132FF974003EFA7BFFD0071D1222E3
:1027D80045900101E004F07006900100E004F0C3A8
:1027E800900101E09435900100E0940240A9900026
:1027F800067A00790712223E7F0F7E00122D8A90FA
:10280800000C7A00790D12223E7F147E00022D8A78
:1028F200FFFF0000000000000000000000000000D8
:1029020000000000000000000000000000000000C5
:10291200FFFF0000000000000000000000000000B7
:1029220000000000000000000000000000000000A5
:10293200FFFF000000000000000000000000000097
:102942000000000000000000000000000000000085
:091FBE0046019C01000000000333
:102D2800122D5390017FE0FD7F04122D53900180F6
:102D3800E0FD0F122D537F0890017EE0FD122D5308
:0B2D48007D0F0F122D530F122D530FA3
:072D53008F828E83EDF02258
:102E0E007D017F347EA0122D537F0A7E00122D8A03
:042E1E007FB17EB84A
:072E22008F828E83E0FF2286
:072D8300122D537F647E0056
:102D8A00EF1FAA0670011E4A6013E4FCFDC3ED940E
:0D2D9A005EEC940150EA0DBD00010C80F0CC
:012DA7002209
:102AF000900183E060097B017A007936121D107B1A
:102B0000017A0079001228187D037F8E7EC0122D75
:102B100053E4FBFA74002BF58274003AF583E0FD70
:102B20007F907EC0122D530BBB00010AE4B503E475
:0D2B3000EAB401E07D027F8E7EC0022D53CD
:102714007D137F557E90122D537D807F57122D534C
:10272400E4FD0F122D537D400F122D537D030F1224
:102734002D537DFF0F122D537D987F5D122D537DF8
:10274400FF7F51122D53122D4A7D130F122D537DED
:10275400FF0F122D537D800F122D53E4FD0F122D08
:10276400537D400F122D537D030F122D537D7F0F88
:10277400122D537DFF0F122D537D980F122D537D73
:10278400FF122D4A122D4A0F122D537D207F2E7ECB
:04279400B0022D530F
:102CBF009001001209EB00000000122E0EAD077FED
:102CCF00127ED2122D537FB27EB8122E22AD077F05
:102CDF00147ED2122D537FB37EB8122E22AD077FF2
:062CEF00157ED2022D53F8
:102BCA009001001209EB000000009001041209EBC9
:102BDA00000000007D357F087EB8122D537D017FED
:102BEA00347EA0122D537F0A7E00122D8A7FB07E7A
:0F2BFA00B8122E22EF5401B401037F01227F0095
:012C090022A8
:1025EF007F8B7ED2122E22EF7D00FC7F8C7ED2124B
:1025FF002E22ED2FFDE43CFCED25E0FDEC33FC7FBE
:10260F0096122E22EF900102F0A3E4F07F977ED274
:10261F00122E22900103E02FF0900102E03400F01F
:10262F007F0C7EC2122E22EF900100F0A3E4F07F08
:10263F000D7EC2122E22900101E02FF0900100E0DA
:10264F003400F07F06122E22EF7B00FA7F077EC246
:10265F00122E22EB2FFBE43AFAAE04AF05900100E5
:10266F00E0B5060FA3E0B5070AA3E06A7003A3E085
:08267F006B60037F01227F0064
:012687002230
:1017E0009001001209EB000000009001041209EBC7
:1017F00000000000122E0EE4FCFDFE900100120914
:10180000DF7FB27EB8122E22E4FCFDFEC004C005CC
:10181000C006C007900100E0FCA3E0FDA3E0FEA32A
:10182000E0FF78081209CCD003D002D001D000EF3D
:101830002BFFEE3AFEED39FDEC38FC900100120969
:10184000DF7FB37EB8122E22E4FCFDFEC004C0058B
:10185000C006C007900100E0FCA3E0FDA3E0FEA3EA
:10186000E0FF78081209CCD003D002D001D000EFFD
:101870002BFFEE3AFEED39FDEC38FC900100120929
:10188000DF7F127ED2122E22E4FCFDFE90010412B4
:1018900009DF7F147ED2122E22E4FCFDFEC004C0BC
:1018A00005C006C007900104E0FCA3E0FDA3E0FE34
:1018B000A3E0FF78081209CCD003D002D001D000F9
:1018C000EF2BFFEE3AFEED39FDEC38FC90010412EF
:1018D00009DF7F157ED2122E22E4FCFDFEC004C07B
:1018E00005C006C007900104E0FCA3E0FDA3E0FEF4
:1018F000A3E0FF78081209CCD003D002D001D000B9
:10190000EF2BFFEE3AFEED39FDEC38FC90010412AE
:1019100009DF900104E0FCA3E0FDA3E0FEA3E0FFEB
:10192000900100E0F8A3E0F9A3E0FAA3E0FBD312F2
:1019300009BB4039900104E0F8A3E0F9A3E0FAA361
:10194000E0FB900100E0FCA3E0FDA3E0FEA3E09B30
:10195000FFEE9AFEED99FDEC98FCE47B207A4EF9BF
:10196000F8C31209BB50037F01227F0022900100BF
:10197000E0F8A3E0F9A3E0FAA3E0FBA3E0FCA3E016
:10198000FDA3E0FEA3E0C39BFFEE9AFEED99FDEC04
:1019900098FCE47B207A4EF9F8C31209BB50037F10
:0419A00001227F00A1
:0119A4002220
:102DA8007D017F007ED8122D531D7F5A122D537D31
:102DB80007122D4EE4FD0F122D537D070F122D53D0
:042DC8000F022D5376
:100D4E0074FF900103F0A3F0A3F0A3F0A3F0A3F0BF
:100D5E0078097C017D01FB7A2879F27E007F2012D2
:100D6E00078178297C017D017BFF7A2979127E002B
:100D7E007F2012078178497C017D017BFF7A2979DA
:100D8E00327E007F201207817D017F007ED8122DDA
:100D9E00537B0FEB25E025E0248AF582E4342BF516
:100DAE0083740193C454F0FD7F5A7ED8122D53EBF9
:100DBE0025E025E0248CF582E4342BF58374019331
:100DCE00FD7F5C122D53EB25E025E0248AF582E4AD
:100DDE00342BF583E474019375F011A4FD0F122DDD
:100DEE0053EB25E025E0248CF582E4342BF5837457
:100DFE000193FD0F122D53EB25E025E0248CF58297
:100E0E00E4342BF583740193FD0F122D537D077F70
:100E1E00207EC0122D537D01122D837F247EC012A1
:100E2E002E22EF547FFEEB25E02409F582E43401F7
:100E3E00F583EEF0A3E4F07F257EC0122E22EB2583
:100E4E00E02409F582E43401F583E48FF01208887A
:100E5E007F26122E22EF547FFEEB25E02429F58209
:100E6E00E43401F583EEF0A3E4F07F277EC0122E6A
:100E7E0022EB25E02429F582E43401F583E48FF09A
:100E8E001208887F28122E22EF547FFEEB25E024D5
:100E9E0049F582E43401F583EEF0A3E4F07F297E78
:100EAE00C0122E22EB25E02449F582E43401F583AD
:100EBE00E48FF0120888EB25E02409F582E4340172
:100ECE00F583E0FEA3E0FF900103E0FCA3E0FDD379
:100EDE00EF9DEE9C501DEB25E02409F582E43401D4
:100EEE00F583E0FFA3E0900103CFF0A3EFF09001B4
:100EFE0000EBF0EB25E02429F582E43401F583E0E4
:100F0E00FEA3E0FF900105E0FCA3E0FDD3EF9DEE14
:100F1E009C501DEB25E02429F582E43401F583E095
:100F2E00FFA3E0900105CFF0A3EFF0900101EBF0ED
:100F3E00EB25E02449F582E43401F583E0FEA3E0DD
:100F4E00FF900107E0FCA3E0FDD3EF9DEE9C501D4A
:100F5E00EB25E02449F582E43401F583E0FFA3E0BC
:100F6E00900107CFF0A3EFF0900102EBF01BEB64C2
:100F7E00076003020DA1900100E025E025E0248A20
:100F8E00F582E4342BF583E474019375F011A4FD1E
:100F9E007F5A7ED8122D53900100E025E025E024E3
:100FAE008CF582E4342BF583740193FD0F122D53CF
:100FBE00900100E025E025E0248CF582E4342BF549
:100FCE0083740193FD0F122D53900102E025E0254D
:100FDE00E0248AF582E4342BF583740193C454F033
:100FEE00FF900101E025E025E0248AF582E4342B10
:100FFE00F5837401932FFD7F5D122D53900101E057
:10100E0025E025E0248CF582E4342BF583740193DE
:10101E00FD0F122D53900102E025E025E0248CF502
:0E102E0082E4342BF583740193FD0F022D53E1
:102E29007F027EA0122E22EF5420B420037F0022BD
:022E39007F0117
:012E3B002274
:100A28007F8B7ED2122E22EF90010CF0A3E4F07F90
:100A38008C7ED2122E2290010DE02FF090010CE056
:100A48003400F0A3E025E0F090010CE033F0122D23
:100A58005A7FFA7E00122D8A7F8B7ED2122E22EFC9
:100A68007D00FC7F8C7ED2122E22ED2FFDE43CFC13
:100A7800ED25E0FDEC33FCE4900116F0C390010D88
:100A8800E09D90010CE09C503F900116E004F0E0DE
:100A9800D394055033122D5A7FC87E00122D8A7FB9
:100AA8008B7ED2122E22EF7D00FC7F8C122E22ED3F
:100AB8002FFDE43CFCED25E0FDEC33FC90010CE05F
:100AC800B504C6A3E0B505C17D0B122E10E4FCFDEC
:100AD800FE9001001209DF7FB27EB8122E22E4FCDC
:100AE800FDFEC004C005C006C007900100E0FCA3DD
:100AF800E0FDA3E0FEA3E0FF78081209CCD003D004
:100B080002D001D000EF2BFFEE3AFEED39FDEC38B4
:100B1800FC9001001209DF7FB37EB8122E22E4FC9C
:100B2800FDFEC004C005C006C007900100E0FCA39C
:100B3800E0FDA3E0FEA3E0FF78081209CCD003D0C3
:100B480002D001D000EF2BFFEE3AFEED39FDEC3874
:100B5800FC9001001209DF7D017F347EA0122D5325
:100B68007F897ED2122E22EF900104F0A3E4F07F59
:100B78008A7ED2122E22900105E02FF0900104E027
:100B88003400F0A3E025E0F0900104E033F07F8B1F
:100B9800122E22EF900106F0A3E4F07F8C7ED21291
:100BA8002E22900107E02FF0900106E03400F0A318
:100BB800E025E0F0900106E033F07F9C122E22EF52
:100BC800900108F0A3E4F07F9D7ED2122E229001BE
:100BD80009E02FF0900108E03400F0A3E025E0F0F0
:100BE800900108E033F07F94122E22EF90010AF072
:100BF800A3E4F07F957ED2122E2290010BE02FF015
:100C080090010AE03400F0A3E025E0F090010AE04A
:100C180033F07F98122E22EF7B00FA7F997ED21252
:100C28002E22EB2FFBE43AFAEB25E0FBEA33FA7FBE
:100C38009E122E22EF90010EF0A3E4F07F9F7ED249
:100C4800122E2290010FE02FF090010EE03400F0F8
:100C58007F96122E22EF900110F0A3E4F07F977E8A
:100C6800D2122E22900111E02FF0900110E03400F2
:100C7800F07F88122E22900112EFF07F86122E222A
:100C8800900113EFF07F87122E22900114EFF07F6E
:100C9800A0122E22EF5402C313900115F07FA01268
:100CA8002E22EF5401F9900100E0FCA3E0FDA3E03F
:100CB800FEA3E0FF90016C1209DF900104E0FFA39E
:100CC800E0900170CFF0A3EFF0900106E0FFA3E001
:100CD800900172CFF0A3EFF0900108E0FFA3E0903D
:100CE8000174CFF0A3EFF090010AE0FFA3E09001B8
:100CF80076CFF0A3EFF0AE02AF03A3EEF0A3EFF0D0
:100D080090010EE0FFA3E090017ACFF0A3EFF090FE
:100D18000110E0FFA3E090017CCFF0A3EFF0900179
:100D280012E090017EF0900113E090017FF09001B5
:100D380014E0900180F0900115E0900181F0AF017E
:050D4800A3EFF07F01A4
:010D4D002283
:101B6500E4900100F0F9FBFD7F507EA0122D537D1E
:101B7500020F122D530D0F122D53E4FD0F122D538D
:101B85007DF10F122D537F50122E22EF4402FD7F5F
:101B950050122D837F0C7EA0122E22EF5402600975
:101BA5007F0C122E22EF5401FB7F507EA0122E22B5
:101BB500EF54FDFD7F50122D537F02122E22EF545C
:101BC50080900100F07F717EC0122E22EF5460F9E3
:101BD5006009900100E06003021C6D900195E0FC36
:101BE500702AEBB401137D047F507EA0122D53E4BF
:101BF500FD7F55122D53021D0AE4FD7F507EA01274
:101C05002D537F55122D537D03021D0AEC6402707E
:101C150026EBB4010DE4FD7F507EA0122D537DF01F
:101C2500800BE4FD7F507EA0122D537DE07F551281
:101C35002D53E4FD021D0A900195E0640160030245
:101C45001D0FEBB4010DE4FD7F507EA0122D537DD9
:101C5500FC800BE4FD7F507EA0122D537DEC7F555B
:101C6500122D53E4FD021D0AE96420704C90019584
:101C7500E0FC7013FD7F507EA0122D537D037F5530
:101C8500122D537D3C807EECB40214E4FD7F507E22
:101C9500A0122D537D037F55122D53E4FD806690D0
:101CA5000195E0640170637D047F507EA0122D5381
:101CB500E4FD7F55122D53804CE96440704C900132
:101CC50095E0FC7011FD7F507EA0122D537F5512BB
:101CD5002D537D3C802FECB402127D047F507EA0F5
:101CE500122D53E4FD7F55122D538019900195E077
:101CF500B40117E4FD7F507EA0122D537D0C7F5556
:0A1D0500122D53E4FD7F57122D53F9
:011D0F0022B1
:1029AC00900181E0640160237F057EC0122E22EF2E
:1029BC007F0530E508122E22EF54DF80087EC0120E
:1029CC002E22EF4420FD7F05122D53900182E064EE
:1029DC000160237F057EC0122E22EF7F0530E408B4
:1029EC00122E22EF54EF80087EC0122E22EF4410DC
:0729FC00FD7F05122D53229F
:102C0A007D437F357EA0122D537D210F122D537DDA
:102C1A00040F122D537D320F122D537D100F122DDA
:102C2A00537D430F122D537D210F122D537D040F17
:0F2C3A00122D537D320F122D537D100F022D538B
:10243700900185E0FCB4010D7DFF7F437EA0122D46
:1024470053E4FD8024EC6402702590018AE0B40116
:102457000D7DF57F437EA0122D53E4FD800B7DE4B7
:102467007F437EA0122D537D800F7EC2122D537D98
:10247700347F557EB0122D537D9F7F5D122D537F84
:102487005F122D537D8F7F61122D537D9F7F6312C6
:102497002D537F65122D537D347F77122D537D9FEA
:1024A7007F7F122D537F81122D537D8F7F83122DB6
:1024B700537D9F7F85122D537F87122D5390018A5D
:1024C700E0704C7D347F44122D537D9F7F4C122D3D
:1024D700537F4E122D537D8F7F50122D537D9F7F3B
:1024E70052122D537F54122D537D347F66122D5374
:1024F7007D9F7F6E122D537F70122D537D8F7F72BC
:10250700122D537D9F7F74122D537F76122D5322E8
:10103C00E4900104F0A3F0A3F07D0B7F347EA012AA
:10104C002D537F14122E19E4FCFDFE9001001209A1
:10105C00DF7FB27EB8122E22E4FCFDFEC004C00578
:10106C00C006C007900100E0FCA3E0FDA3E0FEA3D6
:10107C00E0FF78081209CCD003D002D001D000EFE9
:10108C002BFFEE3AFEED39FDEC38FC900100120915
:10109C00DF7FB37EB8122E22E4FCFDFEC004C00537
:1010AC00C006C007900100E0FCA3E0FDA3E0FEA396
:1010BC00E0FF78081209CCD003D002D001D000EFA9
:1010CC002BFFEE3AFEED39FDEC38FC9001001209D5
:1010DC00DF7D017F347EA0122D53E47BE87A03F987
:1010EC00F8900100E0FCA3E0FDA3E0FEA3E0FF12FA
:1010FC00092990018BE014601104702E7C007D0393
:10110C00120821900169E0FD800EEF25E0FFEE331F
:10111C00FE900169E0FD7C00120833900185E0FD32
:10112C007C00120833900104EFF0900104E0240FCE
:10113C00F0E0C3941950037419F07D387F3A7EB0F7
:10114C00122D537D010F122D53900104E0FFC39417
:10115C00BB5015EFC39450400F7D187F3E122D539A
:10116C009001057401F08061900104E0FFC394507C
:10117C005017EFC3942840117D087F3E7EB0122D8E
:10118C00539001057402F08040900104E0FFC39479
:10119C00285017EFC3941440117D287F3E7EB01267
:1011AC002D539001057404F0801F900104E0FFC3DF
:1011BC0094145015EFC3940A400F7D387F3E7EB0D7
:1011CC00122D539001057408F07D107F3F7EB012F4
:1011DC002D4F900105E0FF900104E08FF0A4AEF0DC
:1011EC007803C333CE33CED8F9FF7C007D1B1208B5
:1011FC0033AD077F417EB0122D537DDF7F0F7E9084
:10120C00122D537F447EB0122E22EF54BFFD7F442B
:10121C00122D537F017E00122D8A7DFF7F0F7E9051
:10122C00122D537F447EB0122E22EF4440FD7F449A
:10123C00122D537D1A122E10E4FCFDFE900190121B
:10124C0009DF7FB27EB8122E22E4FCFDFEC004C082
:10125C0005C006C007900190E0FCA3E0FDA3E0FEF2
:10126C00A3E0FF78081209CCD003D002D001D00043
:10127C00EF2BFFEE3AFEED39FDEC38FC90019012AD
:10128C0009DF7FB37EB8122E22E4FCFDFEC004C041
:10129C0005C006C007900190E0FCA3E0FDA3E0FEB2
:1012AC00A3E0FF78081209CCD003D002D001D00003
:1012BC00EF2BFFEE3AFEED39FDEC38FC900190126D
:1012CC0009DF7D017F347EA0122D53E47F04FE1DC7
:1012DC00FC900190E0F8A3E0F9A3E0FAA3E0FB1284
:0712EC00089E900106EFF0DF
:0112F30022D8
:101FE800E47BE87A03F9F8900190E0FCA3E0FDA314
:101FF800E0FEA3E0FF120929AC07EC75F014842475
:1020080004FBEC75F012842406FAEC75F0068404DF
:10201800900100F0EC75F00A8404A3F0EC75F00C64
:10202800842408A3F0EC75F01984A3F0EC75F0058E
:1020380084F97F447EB0122E22EF4480FD7F441243
:102048002D537D807EA0122D537F49122D53E4FD20
:10205800FF7EC2122D4F7F56122D537D0F7F201207
:102068002D537DFF7F25122D537F2C122D53900168
:1020780002E0FD7F22122D53900103E0FD0F122D87
:1020880053AD010F122D53AD027F2F122D53AD0307
:102098000F122D537DAA0F122D53AD027F52122D10
:1020A80053AD030F122D537DAA0F122D5390018AA1
:1020B800E07028AD037F26122D53AD020F122D5369
:1020C8007DAA7F2E122D53AD027F32122D53AD0300
:1020D8000F122D537DAA7F51122D53EC75F00A84EF
:1020E8002408FD7F287EC2122D53EB2AFF900100A1
:1020F800E02FFD7F2A122D537D107F1B122D537D5B
:0B210800507F1D122D537F2D022D5320
:1012F400900172E0FD7F0C7EC2122D53900173E0C9
:10130400FD0F122D53900180E0FF90017FE02FFD2F
:101314007F35122D5390017CE0FD7F06122D5390F2
:10132400017DE0FD0F122D537D557F0F122D53903B
:101334000185E0640160030213E9900196E024F85A
:10134400604324086003021581900172E0FD7F3838
:101354007EC2122D53900173E0FD0F122D289001CF
:101364008BE0FC700B7D267F17122D537D3E807021
:10137400EC640160030215817D247F177EC2122D67
:10138400537D1C805B900172E0FD7F387EC2122D7C
:1013940053900173E0FD0F122D53900180E0FF90F4
:1013A400017FE02F14FD7F04122D537D010F122DB8
:1013B400531D7F08122D530D122D4A90018BE0FC12
:1013C400700B7D267F17122D537D248013EC64014E
:1013D40060030215817D247F177EC2122D537D1E6A
:1013E4007F1202157E900172E0FEA3E07802CEC364
:1013F40013CE13D8F9EEFD7F107EC2122D53900147
:1014040072E0FEA3E07802CEC313CE13D8F9FD7FB9
:10141400117EC2122D53900196E024F87003021439
:10142400C424086003021581900172E0C313FEEE28
:10143400FD7F387EC2122D53900172E0C313A3E0E6
:1014440013FD0F7EC2122D28900172E0C313FEEE2D
:10145400FD7F367EC2122D53900172E0C313A3E0C8
:1014640013FD0F7EC2122D5390017FE0FD7F5712B2
:101474002D53900180E0FD0F122D530F122D40903B
:10148400018BE0FC70187DA67F17122D537F4C1240
:101494002D537D3E7F12122D537F5D02157EEC6429
:1014A4000160030215817DA47F177EC2122D537F34
:1014B4004C122D537D1C7F12122D537F5D02157E1D
:1014C400900172E0C313FEEEFD7F387EC2122D53ED
:1014D400900172E0C313A3E013FD0F7EC2122D53DB
:1014E400900180E0FF90017FE02F14FD7F04122D16
:1014F400537D010F122D531D7F08122D530D122DF4
:101504004A900172E0C313FEEEFD7F367EC2122DB7
:1015140053900172E0C313A3E013FD0F7EC2122D9A
:1015240053900180E0FF90017FE02F14FD7F57125C
:101534002D537D010F122D531D0F122D530D122DFE
:101544004A90018BE0FC70177DA67F17122D537F04
:101554004C122D537D247F12122D537F5D801BEC82
:10156400B4011A7DA47F177EC2122D537F4C122D15
:0E157400537D1E7F12122D537F5D122D5322C8
:10233B00E4FD7F1C7EC2122D537D807F14122D5322
:10234B00900169E01470030223F114606814603487
:10235B00146003022424900196E0FF90016AE04F81
:10236B00FD7F017EC2122D53900196E0FF90016A12
:10237B00E04FFD7F56122D537D017F02122D537DB1
:10238B00A002242090016AE04430FF900196E04FB8
:10239B00FD7F017EC2122D5390016AE04430FF9005
:1023AB000196E04FFD7F56122D537D017F02122DBA
:1023BB00537D90806090016AE04420FF900196E08D
:1023CB004FFD7F017EC2122D5390016AE04420FF26
:1023DB00900196E04FFD7F56122D537D027F021226
:1023EB002D537D58802F90016AE04410FF90019689
:1023FB00E04FFD7F017EC2122D5390016AE0441025
:10240B00FF900196E04FFD7F56122D537D037F0207
:10241B00122D53E4FD0F122D537F147E00122D8AC3
:0C242B0090016BE0FD7F007EC2022D538B
:102AA200E4FD7F277EB8122D537DC07F007EB012D9
:102AB2002D53E4FD7F8C122D53122D4A7D7F7F060C
:102AC2007E90122D537D387F3A7EB0122D53E4FD55
:102AD2007F017EC2122D537F56122D537DBE7F0A77
:0E2AE2007E90122D53E4FD7F057EC0022D5321
:10295200900194E0FF7D0112296A7FC87E00122D4A
:082962008A900194E0FFE4FDFE
:10296A00AC05EF6008E4FD7F8C7EB080317D707F1E
:10297A008C7EB0122D537F467EA0122E22EF448009
:10298A00FD7F46122D53EC7F486008122E22EF4439
:10299A000480087EA0122E22EF54FBFD7F48122DE0
:0229AA005322B6
:102C860090019CE0FD7F0C7ED2122D5390019DE0B9
:102C9600FD0F122D5390019EE0FD0F122D53900152
:102CA6009FE0FD0F122D539001A0E0FD0F122D5352
:092CB6009001A1E0FD0F022D5375
:102E3C007D4F7F1F7EB0122D537D2E7F2E022D5382
:1019A50090019A7401F07F6412295EE4FD7F067E42
:1019B500C0122D5312288F122C86122B3D122AF09D
:1019C500122DA8122AA2122714122E3C7D017F3453
:1019D5007EA0122D53900194E0FF12296A7F2C7E80
:1019E50001122D8A7D087F067EC0122D537FF47E5D
:1019F50001122D8AE4900197F0900197E07037125B
:101A05002BCAEF602890019AE0B401111227141235
:101A15002B3D122E559001977401F080191217E095
:101A2500EF600280081225EFEF600B8000900197B0
:101A35007404F0122E55900197E06404704E9001E5
:101A45009AE07043122AA27DFB7F077E90122D53E8
:101A55001229527DFF7F077E90122D5390019A74B3
:101A650001F0E4A3F0122E55122E4C122E3CE4FD8B
:101A75007F067EC0122D537FB87E0B122D8A7D08FE
:101A85007F067EC0122D53E4900197F0900197E0F8
:101A950064017063122113EF6008122A03122E5598
:101AA5008005122E558006122CF5EF70E7122CF5E5
:101AB500EF7044122DA8122A53121582122517EF22
:101AC5006009120D4E122A53122E557F147E0012F4
:101AD5002D8A122CF5EF60089001977401F08006AD
:101AE500122E29EF70E5122C49122D5AE490019916
:101AF500F09001977402F0900197E0B4021C7FFA10
:101B05007E00122D8A120A28EF600FE490019AF0E8
:101B1500900198F09001977403F0900197E06403A9
:101B250060030219FE122CBF122C0A122437121060
:101B35003C121FE8900196E07003122798121B656E
:101B45001212F41229AC900196E0B408031229523E
:101B550012233BE4900197F090019B04F00219FEDB
:101FC70057016C00021854049804380048000800B0
:101FD70010079607800E0404010143016904076096
:102DCC009001837401F0E4900194F090018A04F076
:102DDC00900185F0E4900195F090018BF0900196B4
:042DEC00F00219A533
:102DF000FFFF000000000000FFFF000000000000D7
:0E2E0000FFFF000000000000FFFF00000000C8
:10288F007D997F627E90122D537DF07F317EA01255
:10289F002D537D207F2E7EB0122D53E4FD7F297E98
:1028AF00B0122D537D487F307EB0122D537D057FA2
:1028BF00327EB0122D537D557F217EB8122D537D60
:1028CF00407F3A7EB8122D537D117F837ED2122D19
:1028DF00537D417F087EB8122D537DF37F927EA0EA
:0328EF00022D5364
:102CF500E47DFE7F037E90122D537F057E00122D0D
:102D05008A7DFF7F037E90122D537F0A7E00122D50
:102D15008A7FB07EB8122E22EF544070037F0122C5
:022D25007F002D
:012D27002289
:102B3D007DBF7F927EB0122D53E4FD7F217EB012BA
:102B4D002D537DC17F227EB0122D537D097F287EAE
:102B5D00B0122D537D2C7F257EB0122D537D7F7F9E
:102B6D000F7E90122D537F0A7E00122D8A7DFF7FDE
:0D2B7D000F7E90122D537F0A7E00022D8ADC
:092E4C007DC07F217EB0022D53F0
:102113007D017F347EA0122D537F0A7E00122D8A0B
:102123007FB17EB8122E22E4FCFDFE90018C1209D1
:10213300DF7FB27EB8122E22E4FCFDFEC004C00590
:10214300C006C00790018CE0FCA3E0FDA3E0FEA362
:10215300E0FF78081209CCD003D002D001D000EF01
:102163002BFFEE3AFEED39FDEC38FC90018C1209A1
:10217300DF7FB37EB8122E22E4FCFDFEC004C0054F
:10218300C006C00790018CE0FCA3E0FDA3E0FEA322
:10219300E0FF78081209CCD003D002D001D000EFC1
:1021A3002BFFEE3AFEED39FDEC38FC90018C120961
:1021B300DFE47F207E4EFDFC90018CE0F8A3E0F984
:1021C300A3E0FAA3E0FBC31209BB40177F687EA715
:1021D3007D047C0090018CE0F8A3A3A3E0D3120953
:1021E300BB40037F00227F887E017D037C0090013A
:1021F3008CE0F8A3E0F9A3E0FAA3E0FBC31209BB68
:1022030040047D4780227F007E777D017C00900122
:102213008CE0F8A3E0F9A3E0FAA3E0FBC31209BB47
:1022230050047D7780027D677F2A7EB0122D537D17
:0B223300427F2B7EB0122D537F012252
:102A03007D7F7F0F7E90122D537F0A7E00122D8AC9
:102A13007DFF7F0F7E90122D537F0A7E00122D8A39
:102A23007D147F147EB8122D537F017E00122D8AF0
:102A33007D947F147EB8122D537F017E00122D8A60
:102A43007DB47F147EB8122D537F0A7E00022D8A37
:102C49007DFB7F107E90122D537DFB7F077E9012B6
:102C59002D537DDF7F087E90122D537F0A7E00124F
:102C69002D8A7DFF7F087E90122D537DFF7F077E81
:0D2C790090122D537DFF7F107E90022D5391
:102D5A007DFE7F0B7E90122D537F0A7E00122D8AF4
:102D6A007D3F7F0A7E90122D537F0A7E00122D8AA4
:092D7A007DBF7F0A7E90022D53FB
:102A5300E4FD7F1F7EB0122D53E4FD7F207EB01274
:102A63002D537DBF7F0F7E90122D537DFE7F0D7EF4
:102A730090122D537DEF7F037E90122D537F0A7E9C
:102A830000122D8A7DFF7F0D7E90122D537DFF7FD7
:0F2A93000F7E90122D537DFF7F037E90022D53F7
:1015820074FF900100F0A3F0A3F0A3F0A3F0A3F086
:1015920078067C017D01FB7A2D79F07E007F0812AE
:1015A2000781780E7C017D017BFF7A2D79F87E0020
:1015B2007F0812078178167C017D017BFF7A2E79E4
:1015C200007E007F08120781E490011EF0A3F0A3C1
:1015D200F0A3F07FA07E867D01FC90018CE0F8A351
:1015E200E0F9A3E0FAA3E0FBC31209BB4003021730
:1015F200D67D0F7F277EB8122D53E490011EF09006
:10160200011EE0FFC394047480948040030217AC6F
:10161200EFC454F0FD7F297EB8122D5390011EE0D5
:10162200C454F0FD7F2A7EB8122D5390011EE0C4EF
:1016320054F0FD7F2B7EB8122D537D077F207EC094
:10164200122D537D017F207EC0122D537F327E00EA
:10165200122D8A7F247EC0122E22EF547FFE90012B
:101662001EE025E02406F582E43401F583EEF0A3C2
:10167200E4F07F257EC0122E2290011EE025E02498
:1016820006F582E43401F583E48FF01208887F26A0
:101692007EC0122E22EF547FFE90011EE025E02430
:1016A2000EF582E43401F583EEF0A3E4F07F277EA9
:1016B200C0122E2290011EE025E0240EF582E434B1
:1016C20001F583E48FF01208887F287EC0122E2253
:1016D200EF547FFE90011EE025E02416F582E434EB
:1016E20001F583EEF0A3E4F07F297EC0122E229052
:1016F200011EE0FD25E02416F582E43401F583E4C1
:101702008FF0120888ED25E02406F582E43401F515
:1017120083E0FEA3E0FF900100E0FCA3E0FDD3EF35
:101722009DEE9C501290011EE0FD900100EEF0A390
:10173200EFF090011FEDF090011EE025E0240EF580
:1017420082E43401F583E0FEA3E0FF900102E0FCB5
:10175200A3E0FDD3EF9DEE9C501290011EE0FD90A0
:101762000102EEF0A3EFF0900120EDF090011EE0F7
:1017720025E02416F582E43401F583E0FEA3E0FFC0
:10178200900104E0FCA3E0FDD3EF9DEE9C5012908B
:10179200011EE0FD900104EEF0A3EFF0900121EDB7
:1017A200F090011EE004F002160190011FE0C45403
:1017B200F0FD7F297EB8122D53900120E0C454F031
:1017C200FD7F2A7EB8122D53900121E0C454F0FD12
:0D17D2007F2B8004E4FD7F277EB8122D538D
:0117DF0022E7
:1025170078007C017D017BFF7A2E79087E007F069B
:102527001207817D077F207EC0122D537D017F20FA
:102537007EC0122D537F647E00122D8A7F247EC0B9
:10254700122E22EF547F7F00FEC006C0077F257E34
:10255700C0122E22EFFDD0E02DFED0E03400900116
:1025670000F0A3CEF07F267EC0122E22EF547F7F8D
:1025770000FEC006C0077F277EC0122E22EFFDD0C7
:10258700E02DFED0E03400900102F0A3CEF07F28CA
:102597007EC0122E22EF547F7F00FEC006C0077F49
:1025A700297EC0122E22EFFDD0E02DFED0E03400B0
:1025B700900104F0A3CEF0D3900101E094009001C4
:1025C70000E09400501C900103E09400900102E0A9
:1025D7009400500E900105E09400900104E09400EF
:0725E70040037F01227F0089
:0125EE0022CA
:10269400022DCCE493A3F8E493A34003F68001F263
:1026A40008DFF48029E493A3F85407240CC8C33347
:1026B400C4540F4420C8834004F456800146F6DF16
:1026C400E4800B0102040810204080901EA5E47EE3
:1026D400019360BCA3FF543F30E509541FFEE4930B
:1026E400A360010ECF54C025E060A840B8E493A3D2
:1026F400FAE493A3F8E493A3C8C582C8CAC583CAFD
:10270400F0A3C8C582C8CAC583CADFE9DEE780BEB4
:011FE70000F9
:1006B100E709F608DFFA8046E709F208DFFA803E2B
:1006C10088828C83E709F0A3DFFA8032E309F60818
:1006D100DFFA8078E309F208DFFA807088828C8380
:1006E100E309F0A3DFFA806489828A83E0A3F60834
:1006F100DFFA805889828A83E0A3F208DFFA804C0E
:1007010080D280FA80C680D4806980F280338010E4
:1007110080A680EA809A80A880DA80E280CA80334D
:1007210089828A83ECFAE493A3C8C582C8CCC583C5
:10073100CCF0A3C8C582C8CCC583CCDFE9DEE78095
:100741000D89828A83E493A3F608DFF9ECFAA9F014
:10075100EDFB2289828A83ECFAE0A3C8C582C8CC6A
:10076100C583CCF0A3C8C582C8CCC583CCDFEADE83
:10077100E880DB89828A83E493A3F208DFF980CCE5
:1007810088F0EF60010E4E60C388F0ED2402B404DE
:100791000050B9F582EB2402B4040050AF23234585
:0607A100822390070173A2
:1007A700BB010689828A83E0225002E722BBFE0250
:0907B700E32289828A83E4932283
:1007C000BB010CE58229F582E5833AF583E02250EE
:1007D00006E92582F8E622BBFE06E92582F8E22238
:0D07E000E58229F582E5833AF583E4932252
:1007ED00BB010689828A83F0225002F722BBFE01EB
:0207FD00F322E5
:1007FF00F8BB010DE58229F582E5833AF583E8F030
:10080F00225006E92582C8F622BBFE05E92582C8DB
:02081F00F222C3
:10082100EF8DF0A4A8F0CF8CF0A428CE8DF0A42EEB
:02083100FE22A5
:10083300BC000BBE0029EF8DF084FFADF022E4CCA9
:10084300F875F008EF2FFFEE33FEEC33FCEE9DEC72
:10085300984005FCEE9DFE0FD5F0E9E4CEFD22EDB8
:10086300F8F5F0EE8420D21CFEADF075F008EF2F02
:10087300FFED33FD4007985006D5F0F222C398FDF3
:050883000FD5F0EA2290
:10088800C5F0F8A3E028F0C5F0F8E58215827002FB
:060898001583E038F02298
:10089E00E88FF0A4CC8BF0A42CFCE98EF0A42CFCF9
:1008AE008AF0EDA42CFCEA8EF0A4CDA8F08BF0A477
:1008BE002DCC3825F0FDE98FF0A42CCD35F0FCEBD6
:1008CE008EF0A4FEA9F0EB8FF0A4CFC5F02ECD399B
:0F08DE00FEE43CFCEAA42DCE35F0FDE43CFC2208
:1008ED0075F008758200EF2FFFEE33FECD33CDCCC2
:1008FD0033CCC58233C5829BED9AEC99E582984045
:10090D000CF582EE9BFEED9AFDEC99FC0FD5F0D621
:10091D00E4CEFBE4CDFAE4CCF9A88222B800C1B94B
:10092D000059BA002DEC8BF084CFCECDFCE5F0CB89
:10093D00F97818EF2FFFEE33FEED33FDEC33FCEBC2
:10094D0033FB10D703994004EB99FB0FD8E5E4F97D
:10095D00FA227818EF2FFFEE33FEED33FDEC33FC6A
:10096D00C933C910D7059BE99A4007EC9BFCE99A5E
:10097D00F90FD8E0E4C9FAE4CCFB2275F010EF2FA3
:10098D00FFEE33FEED33FDCC33CCC833C810D707A3
:10099D009BEC9AE899400AED9BFDEC9AFCE899F8DE
:0E09AD000FD5F0DAE4CDFBE4CCFAE4C8F92271
:1009BB00EB9FF5F0EA9E42F0E99D42F0E89C45F092
:0109CB002209
:1009CC00E8600FEFC333FFEE33FEED33FDEC33FC89
:0309DC00D8F1222D
:0C09DF00ECF0A3EDF0A3EEF0A3EFF0228B
:1009EB00A8828583F0D083D082120A02120A0212E7
:1009FB000A02120A02E473E493A3C583C5F0C5830C
:100A0B00C8C582C8F0A3C583C5F0C583C8C582C855
:010A1B0022B8
:0C0A1C00A42582F582E5F03583F58322E5
:00000001FF
